:10000000A6C00000CCC00000CAC00000C8C00000EC
:10001000C6C00000C4C00000C2C00000C0C00000D4
:10002000BEC00000BCC00000BAC000000C94181D87
:10003000B6C00000B4C00000B2C00000B0C00000F4
:100040000C943309ACC000000C945C080C948E082E
:10005000A6C00000A4C00000A2C00000A0C0000014
:100060009EC000009CC00000036EDB363D9A99994B
:10007000993DABAAAA2A3E000000803F084AD73B20
:100080003BCE016E84BCBFFDC12F3D6C74319ABD67
:1000900056833DDA3D00C77F11BED9E4BB4C3E918B
:1000A0006BAAAABE000000803F072C7AA5BA6CC5D7
:1000B00090DA3B9365FC8BBC53F810FD3C56928361
:1000C0004DBD879D3AB63DCBC9BF5BBE73DA0FC944
:1000D0003F05A84CCDB2D44EB93836A9020C50B960
:1000E000918688083CA6AAAA2ABE000000803F008C
:1000F00000000008000201000003040700000000E7
:1001000000000000010204081020408001020408E1
:100110001020010204081020040404040404040450
:1001200002020202020203030303030300000000B1
:1001300023002600290000000000250028002B00D5
:1001400000000000240027002A00BC08141D112410
:100150001FBECFEFD8E0DEBFCDBF11E0A0E0B1E021
:10016000EAEDF6E402C005900D92A631B107D9F789
:1001700022E0A6E1B1E001C01D92A335B207E1F78C
:1001800011E0CEE4D1E004C02297FE010E94E21FFC
:10019000CA34D107C9F70E9428090C946B2330CFC9
:1001A000DC01ED91FC910190F081E02D0994EF923A
:1001B000FF920F931F93CF93DF931F92CDB7DEB7BC
:1001C0007C01FC0100811181C80169830E945523D3
:1001D0006981681719F0C8010E945D23C7010F905B
:1001E000DF91CF911F910F91FF90EF90089526E03E
:1001F00040E051EE60E070E089E591E0FBD68FEFE2
:1002000091E00C94550FCF93DF93EC01BC016F7715
:10021000772789E591E0C4DFBE01660F672F661F6F
:10022000770B6F77772789E591E0DF91CF91B8CF92
:100230004F925F926F927F928F929F92AF92BF92F6
:10024000CF92DF92EF92FF92CF934B015C010E941D
:1002500016216B017C01882777FD8095982F0E94DD
:1002600049219B01AC01C501B4010E94032020E09B
:1002700030E048EC52E40E948E222B013C0120E049
:1002800030E0A9010E94832220E030E040E05FE3FB
:1002900087FD05C0C301B2010E94042004C0C30150
:1002A000B2010E9403200E941621762E672EC1E023
:1002B00020E030E0A901C501B4010E948322181694
:1002C0000CF0C0E061E06C2770E089E591E068DF48
:1002D0005601D7FE04C0AA24BB24AC18BD08B50142
:1002E0006F77772789E591E05BDFB501660F672FB0
:1002F000661F770B6F77772789E591E051DF672DD0
:10030000762D77FF03C07195619571096F77772717
:1003100089E591E0CF91FF90EF90DF90CF90BF9073
:10032000AF909F908F907F906F905F904F9038CF5D
:100330008F929F92AF92BF92CF92DF92EF92FF92F5
:100340004B015C010E9416216B017C01882777FD1F
:100350008095982F0E9449219B01AC01C501B401F1
:100360000E94032020E030E048EC52E40E948E22FC
:100370004B015C0120E030E0A9010E94832220E0D3
:1003800030E040E05FE387FD05C0C501B4010E9495
:10039000042004C0C501B4010E9403200E9416215C
:1003A0004B015601D7FE04C0AA24BB24AC18BD08DB
:1003B000B5016F77772789E591E0F2DEB501660F29
:1003C000672F661F770B6F77772789E591E0E8DE67
:1003D000B40197FE03C07195619571096F77772716
:1003E00089E591E0FF90EF90DF90CF90BF90AF90C4
:1003F0009F908F90D5CECF93DF93EC0161E070E0BA
:100400001816190614F460E070E089E591E0C8DE82
:10041000D7FF03C0D195C195D109BE016F7777276A
:1004200089E591E0BDDEBE01660F672F661F770B81
:100430006F77772789E591E0DF91CF91B1CE2F9249
:100440003F924F925F926F927F928F929F92AF9264
:10045000BF92CF92DF92EF92FF920F931F93CF93B1
:10046000DF93CDB7DEB763970FB6F894DEBF0FBE4C
:10047000CDBF1A018A3A09F083C4DA018C91803128
:1004800001F511961C91119741E012968C91811102
:1004900001C040E060EF70E089E591E04A8B80DECA
:1004A0006AEA70E089E591E07BDE612F89E591E001
:1004B0003DD54A89612F8FEF91E00E94240E38DFED
:1004C000B6C18131B9F501E0FA018581811101C020
:1004D00000E0D10112968C91129713966C91B0E8BE
:1004E0006B9FB0011124680F711D882777FD8095DF
:1004F000982F0E9449216B017C01F101648170E019
:1005000080E090E00E94472120E030E048EC52E497
:100510000E94AE209B01AC01C701B6010E940420DD
:100520009B01AC01D10111966C918FEF91E00E947B
:10053000E60B24C4823191F560EF70E089E591E02B
:100540002FDE6AEA70E089E591E02ADE62E170E080
:1005500089E591E025DE8FEF91E00E9463128090A3
:10056000150290901602A0901702B0901802C09049
:100570001902D0901A02E0901B02F0901C026091C8
:10058000110270911202809113029091140250DEB8
:10059000C501B4014DDEC701B60105C2833109F0C2
:1005A00026C1FA0182816381F0E86F9FB0011124B6
:1005B000680F711D882777FD8095982F0E9449212B
:1005C0006B017C01D10114966C9170E080E090E0A9
:1005D0000E94472120E030E048EC52E40E94AE2027
:1005E0009B01AC01C701B6010E9404206F8378878C
:1005F00089879A87F1018181813049F48F819885BB
:10060000A985BA85B0588F839887A987BA87D10101
:1006100016968C91169717966C91B0E86B9FB00167
:100620001124680F711D882777FD8095982F0E94EF
:1006300049216B017C01F101608570E080E090E070
:100640000E94472120E030E048EC52E40E94AE20B6
:100650009B01AC01C701B6010E9404202B013C01A3
:10066000D10115968C91813021F477FA709477F846
:100670007094F10182856385F0E86F9FB0011124C9
:10068000680F711D882777FD8095982F0E9449215A
:100690006B017C01D1011C966C9170E080E090E0D0
:1006A0000E94472120E030E048EC52E40E94AE2056
:1006B0009B01AC01C701B6010E9404206B017C01C3
:1006C000F1018185813021F4F7FAF094F7F8F09484
:1006D000D1011D968C911D971E966C91B0E86B9F71
:1006E000B0011124680F711D882777FD8095982F20
:1006F0000E9449214B015C01F101678570E080E0B7
:1007000090E00E94472120E030E048EC52E40E9453
:10071000AE209B01AC01C501B4010E9404204B0135
:100720005C01D1015096BC91BF87F101818962893A
:10073000F0E86F9FB0011124680F711D882777FDC5
:100740008095982F0E9449216B877C878D879E8793
:10075000D10153966C9170E080E090E00E944721B7
:1007600020E030E048EC52E40E94AE209B01AC0156
:100770006B857C858D859E850E940420362F472FB2
:10078000582F9B87F101248905891689123010F4AE
:10079000117001C010E065E070E080E090E02B8B0C
:1007A000388B4A8B598BCCD51F930F932B892F9362
:1007B000FB85FF9359895F934A894F9338893F930B
:1007C0008F858F93930182014F81588569857A8542
:1007D0008FEF91E00E94C5186AE070E080E090E041
:1007E000AFD50FB6F894DEBF0FBECDBFC9C28431FE
:1007F00021F5FA011181028160EF70E089E591E055
:10080000CFDC6AEA70E089E591E0CADC612F89E516
:1008100091E08CD3013011F462E001C060E0812FDF
:10082000A4D6812F10D7BC0189E591E0B9DC67EF30
:1008300070E089E591E0B4DCA1C2853181F4DA0190
:1008400011961C9161E0812F90D6F1018281813057
:1008500011F461E001C060E0812FC0D68FC2863103
:10086000A1F4DA0111961C9160EF70E089E591E046
:1008700097DC6AEA70E089E591E092DC612F89E516
:1008800091E054D3812FCED561C08731A1F5FA0113
:10089000B18061E08B2D69D6D10112968C911297AF
:1008A00013960C91B0E80B9F80011124080F111DC5
:1008B000B801882777FD8095982F0E9449216B0108
:1008C0007C0120E030E0A9010E94A72087FD0CC038
:1008D00020E030E04FE753E4C701B6010E948322D5
:1008E00018162CF46FEF01C060E070E001C0B80191
:1008F0008B2DB5D543C28A3109F057C0FA01218149
:1009000082810381F0E80F9F80011124080F111DDF
:1009100060EF70E089E591E02B8B42DC6AEA70E0E1
:1009200089E591E03DDC6AE170E089E591E038DC41
:10093000C80169DC2B89223059F02430C1F0213004
:1009400009F075CFC8010E94552390E05CDC6FCFA1
:100950001A821982C8010E9455238983C801019611
:100960000E9455238A8389819A8145DD60CF19824F
:100970001A821B821C826E0185E0C80ED11CDE012A
:1009800011967D010A1B1B0BC8018E0D9F1D0E9435
:100990005523F70181937F01EC15FD05A9F76981C6
:1009A0007A818B819C8144DC42CF8B3109F085C0F8
:1009B000DA0113968C91139712961C91B0E88B9FD5
:1009C00010191124FA018181823071F0843069F1AB
:1009D000813009F0D3C185816481F0E88F9F60196F
:1009E0001124812F90E079C185816681B0E86B9FE9
:1009F000B0011124680F711DFA018481813019F44E
:100A00007195619571097E836D83012F10E01A83C2
:100A10000983CE010196CBDB6E810F5F1F4F1A83D6
:100A20000983CE010196C3DBA9C185816681B0E847
:100A30006B9FB0011124680F711D882777FD809589
:100A4000982F0E9449216B017C01F101678170E0C0
:100A500080E090E00E94472120E030E048EC52E442
:100A60000E94AE209B01AC01C701B6010E94042088
:100A7000D10114962C91AB01BC01213009F47058BE
:100A800049835A836B837C836E01B5E0CB0ED11C06
:100A9000FE0131967F01012F10E00E1B1F0BC801D4
:100AA0008E0D9F1DD7016D917D019E838D83C601A3
:100AB0007EDBEC14FD0499F761C18C3171F461E0C7
:100AC000FA018281811101C060E0D10111964C913F
:100AD0008FEF91E00E94750E51C18D3171F4FA01D2
:100AE0008181813029F48FEF91E00E94EA1C46C198
:100AF0008FEF91E00E94FA1C41C1803279F4DA0153
:100B000011968C91813029F48FEF91E00E94C81CDE
:100B100035C18FEF91E00E94D81C30C18E3109F0B1
:100B200065C0FA0182816381F0E86F9FB0011124F2
:100B3000680F711D882777FD8095982F0E944921A5
:100B40006B017C01D10114966C9170E080E090E023
:100B50000E94472120E030E048EC52E40E94AE20A1
:100B60009B01AC01C701B6010E9404206B017C010E
:100B7000F1018181813021F4F7FAF094F7F8F094D3
:100B8000D10116968C91169717966C91B0E86B9FD1
:100B9000B0011124680F711D882777FD8095982F6B
:100BA0000E9449214B015C01F101608570E080E009
:100BB00090E00E94472120E030E048EC52E40E949F
:100BC000AE209B01AC01C501B4010E9404208B0141
:100BD0009C01D10115968C91813009F43058B701F0
:100BE000A6018FEF91E00E94750FC8C08F3109F008
:100BF0005FC011E0FA018781811101C010E0D101CD
:100C000014968C91149715966C91B0E86B9FB00177
:100C10001124680F711D882777FD8095982F0E94F9
:100C200049216B017C01F101668170E080E090E078
:100C30000E94472120E030E048EC52E40E94AE20C0
:100C40009B01AC01C701B6010E9404204B015C016D
:100C5000D10111968C91119712966C91B0E86B9F0F
:100C6000B0011124680F711D882777FD8095982F9A
:100C70000E9449216B017C01F101638170E080E0F9
:100C800090E00E94472120E030E048EC52E40E94CE
:100C9000AE209B01AC01C701B6010E940420AB014C
:100CA000BC01E12E950184018FEF91E0BFD666C0B3
:100CB0008232B1F4FFEF2F1A3F0A05E610E0D101AE
:100CC0006D911D01C8010E945D230F5F1F4F033707
:100CD0001105A9F760E884E690E00E945D234EC00C
:100CE000813229F560EF70E089E591E059DA6AEA2E
:100CF00070E089E591E054DA84E690E00E945523A3
:100D0000803809F094CD61E270E089E591E048DA3D
:100D100005E610E0C8010E945523682F89E591E09F
:100D200005D10F5F1F4F03371105A1F780CD833227
:100D3000E1F460EF70E089E591E032DA6AEA70E0B0
:100D400089E591E02DDA63E270E089E591E028DA47
:100D500061E070E089E591E023DA67E070E089E521
:100D600091E01EDA63E070E05FCD843249F4FA016D
:100D70002381428161818FEF91E0D3D481E001C072
:100D800080E063960FB6F894DEBF0FBECDBFDF9153
:100D9000CF911F910F91FF90EF90DF90CF90BF9078
:100DA000AF909F908F907F906F905F904F903F900B
:100DB0002F90089560911601615049E151E08091B2
:100DC00018013DCB909158019923A1F0873F19F468
:100DD00010925801EFCF2091160130911701F901BF
:100DE000E85EFE4F80832F5F3F4F309317012093C3
:100DF00016010895803F08F4807F90E0803F9105C0
:100E000039F481E080935801109217011092160175
:100E1000089589E591E027D08F3F2FEF920709F0E1
:100E2000D1CF089589E591E005D0892B11F0F1DF4C
:100E3000F9CF0895FC01818D228D90E0805C9F4F59
:100E4000821B91098F7399270895FC01918D828DE2
:100E5000981731F0828DE80FF11D858D90E008958F
:100E60008FEF9FEF0895FC01918D828D981761F0AF
:100E7000828DDF01A80FB11D5D968C91928D9F5FD1
:100E80009F73928F90E008958FEF9FEF089583EB0B
:100E900098E0892B41F080E090E0892B21F063D12C
:100EA00081110C9400000895FC01848DDF01A80FCE
:100EB000B11DA35ABF4F2C91848D90E001968F7382
:100EC0009927848FA689B7892C93A089B1898C91A1
:100ED00080648C93938D848D981306C00288F38967
:100EE000E02D80818F7D80830895CF93DF93EC0187
:100EF000888D8823C1F0EA89FB89808185FD05C042
:100F0000A889B9898C9186FD0EC00FB607FCF5CF74
:100F1000808185FFF2CFA889B9898C9185FFEDCFBB
:100F2000CE01C2DFE8CFDF91CF910895CF92DF925B
:100F3000FF920F931F93CF93DF931F92CDB7DEB72E
:100F40006C0181E0D60158968C9358975B969C91E2
:100F50005B975C968C915C97981307C05096ED91C7
:100F6000FC915197808185FD2DC0F601038D10E025
:100F70000F5F1F4F0F731127F02EF601848DF812AB
:100F800010C00FB607FCF9CFD6015096ED91FC9139
:100F90005197808185FFF1CFC601698385DF698123
:100FA000ECCF838DE80FF11DE35AFF4F6083D6012C
:100FB0005B960C935B975296ED91FC9153978081D1
:100FC00080620CC0D6015696ED91FC9157976083D4
:100FD0005096ED91FC91519780818064808381E0EF
:100FE00090E00F90DF91CF911F910F91FF90DF90D4
:100FF000CF900895BF92CF92DF92EF92FF92CF935E
:10100000DF93EC016A017B01B22EE889F98982E065
:101010008083411581EE580761057105A1F060E0FC
:1010200079E08DE390E0A70196010E94981F21507E
:10103000310941095109569547953795279521154D
:1010400080E1380798F0E889F989108260E874E84F
:101050008EE190E0A70196010E94981F215031096E
:10106000410951095695479537952795EC85FD859A
:101070003083EE85FF852083188EEC89FD89B08250
:10108000EA89FB89808180618083EA89FB8980818C
:1010900088608083EA89FB89808180688083EA890F
:1010A000FB8980818F7D8083DF91CF91FF90EF90CE
:1010B000DF90CF90BF9008951F920F920FB60F92BE
:1010C00011242F938F939F93EF93FF93E0916901E6
:1010D000F0916A018081E0916F01F091700182FDD1
:1010E00012C09081809172018F5F8F732091730184
:1010F000821751F0E0917201F0E0E75AFE4F958FB0
:101100008093720101C08081FF91EF919F918F9137
:101110002F910F900FBE0F901F9018951F920F9256
:101120000FB60F9211242F933F934F935F936F93BA
:101130007F938F939F93AF93BF93EF93FF9389E533
:1011400091E0B2DEFF91EF91BF91AF919F918F91AE
:101150007F916F915F914F913F912F910F900FBEB3
:101160000F901F90189589E591E064DE21E0892BAE
:1011700009F420E0822F089510925C0110925B0127
:1011800088EE93E0A0E0B0E080935D0190935E0173
:10119000A0935F01B093600189E091E090935A01C0
:1011A0008093590185EC90E09093660180936501EE
:1011B00084EC90E0909368018093670180EC90E06C
:1011C00090936A018093690181EC90E090936C01A7
:1011D00080936B0182EC90E090936E0180936D019F
:1011E00086EC90E09093700180936F0110927201F1
:1011F0001092730110927401109275010895CF92AC
:10120000DF92EF92FF920F931F93CF93DF937C01B6
:101210006A01EB0100E010E00C151D0571F0699109
:10122000D701ED91FC910190F081E02DC701099566
:10123000892B19F00F5F1F4FEFCFC801DF91CF91BE
:101240001F910F91FF90EF90DF90CF900895089538
:10125000AED0FDDF0E94F700C7E4D7E0E3DD2097C2
:10126000E9F315DEFBCF1F920F920FB60F921124F8
:101270002F933F938F939F93AF93BF938091F701E9
:101280009091F801A091F901B091FA013091F60125
:1012900023E0230F2D3720F40196A11DB11D05C0B9
:1012A00026E8230F0296A11DB11D2093F60180931D
:1012B000F7019093F801A093F901B093FA0180919E
:1012C000FB019091FC01A091FD01B091FE010196FE
:1012D000A11DB11D8093FB019093FC01A093FD0122
:1012E000B093FE01BF91AF919F918F913F912F914C
:1012F0000F900FBE0F901F9018953FB7F8948091F4
:10130000FB019091FC01A091FD01B091FE0126B579
:10131000A89B05C02F3F19F00196A11DB11D3FBF2D
:101320006627782F892F9A2F620F711D811D911DBD
:1013300042E0660F771F881F991F4A95D1F70895DD
:101340008F929F92AF92BF92CF92DF92EF92FF92D5
:101350006B017C01D2DF4B015C01C114D104E104BB
:10136000F104E1F098D1C9DF681979098A099B096C
:10137000683E73408105910580F321E0C21AD108CF
:10138000E108F10888EE880E83E0981EA11CB11CCC
:10139000C114D104E104F10431F7DFCFFF90EF90E5
:1013A000DF90CF90BF90AF909F908F9008957894EA
:1013B00084B5826084BD84B5816084BD85B582605A
:1013C00085BD85B5816085BDEEE6F0E080818160F8
:1013D0008083E1E8F0E010828081826080838081F8
:1013E00081608083E0E8F0E0808181608083E1EBD0
:1013F000F0E0808184608083E0EBF0E080818160B8
:101400008083EAE7F0E0808184608083808182606D
:101410008083808181608083808180688083109256
:10142000C10008958E3008F08E508770209104011D
:1014300090E4299F90011124822B80937C0080915D
:101440007A00806480937A0080917A0086FDFCCFD8
:10145000809178002091790090E0922B08951F935D
:10146000CF93DF93182FEB0161E07FD0209711F429
:1014700060E004C0CF3FD10531F461E0812FDF91FE
:10148000CF911F91ABC0E12FF0E0E051FF4FE4910D
:10149000E330F9F048F4E130B9F0E230A1F584B579
:1014A000806284BDC8BD34C0E730E9F0E83019F18E
:1014B000E43049F580918000806280938000D09371
:1014C0008B00C0938A0024C084B5806884BDC7BDEA
:1014D0001FC080918000806880938000D093890035
:1014E000C093880015C08091B00080688093B000E0
:1014F000C093B3000DC08091B00080628093B000B3
:10150000C093B40005C0C038D1050CF0B6CFB0CF41
:10151000DF91CF911F910895833081F028F48130BD
:1015200099F08230A1F008958730A9F08830B9F0A1
:101530008430D1F4809180008F7D03C08091800041
:101540008F7780938000089584B58F7702C084B52B
:101550008F7D84BD08958091B0008F7703C0809106
:10156000B0008F7D8093B0000895CF93DF9390E01B
:10157000FC01EC5FFE4F2491FC01E85EFE4F84917C
:10158000882349F190E0880F991FFC01E05CFE4F31
:10159000A591B4918A5C9E4FFC01C591D4919FB7EF
:1015A000611108C0F8948C91209582238C938881D6
:1015B00082230AC0623051F4F8948C91322F309516
:1015C00083238C938881822B888304C0F8948C9128
:1015D000822B8C939FBFDF91CF9108950F931F9320
:1015E000CF93DF931F92CDB7DEB7282F30E0F901FC
:1015F000E051FF4F8491F901EC5FFE4F1491F90126
:10160000E85EFE4F04910023C1F0882319F069833E
:1016100083DF6981E02FF0E0EE0FFF1FEA5CFE4FF1
:10162000A591B4919FB7F8948C91611103C0109566
:10163000812301C0812B8C939FBF0F90DF91CF91AD
:101640001F910F910895CF93DF93282F30E0F90178
:10165000E051FF4F8491F901EC5FFE4FD491F90105
:10166000E85EFE4FC491CC2389F0811155DFEC2F49
:10167000F0E0EE0FFF1FE45DFE4FA591B4912C91B9
:101680002D2381E090E021F480E002C080E090E032
:10169000DF91CF9108950895CF92DF92EF92FF925C
:1016A0000F931F93CF93DF9300D0CDB7DEB76C01BC
:1016B0008B017C0184E0E80EF11CC60169837A830A
:1016C0000E945523F80181938F01FFEFCF1ADF0AA3
:1016D00069817A81CE14DF0481F7CB010F900F90DE
:1016E000DF91CF911F910F91FF90EF90DF90CF90FE
:1016F0000895CF93DF93EC014F960E94D41DCE0145
:1017000082960E94D41DCE0185960E94D41DCE01E2
:1017100088960E94D41DCE018B96DF91CF910C94B8
:10172000D41D8F929F92AF92BF92CF92DF92EF9291
:10173000FF920F931F93CF93DF9300E010E0C62F2B
:10174000D0E0C22ED12CE12CF12C842E912CA12C96
:10175000B12C0C171D077CF4C701B601F1DD61E067
:1017600083E03CDFC501B401EBDD60E083E036DF00
:101770000F5F1F4FEECFDF91CF911F910F91FF9021
:10178000EF90DF90CF90BF90AF909F908F90089593
:10179000CF93DF9300D000D0CDB7DEB719821A8285
:1017A0001B821C8224E0629FC0011124BE016F5F76
:1017B0007F4F4E9671DF69817A818B819C810F907A
:1017C0000F900F900F90DF91CF910895CF92DF92FD
:1017D000EF92FF920F931F93CF93DF93EC01162F9D
:1017E00069017A01002349F0D3DF9B01AC01C701F5
:1017F000B6010E9404206B017C0120E030E0A901C9
:10180000C701B6010E94A72087FD11C020E030E08B
:1018100044E353E4C701B6010E948322181654F42E
:10182000C12CD12C84E3E82E83E4F82E03C0C12C14
:10183000D12C76011130D9F078F0123019F1133033
:1018400059F5B701A601CE0188960E94B31ECE8637
:10185000DF86E88AF98A20C0B701A601CE014F963B
:101860000E94B31ECA82DB82EC82FD8215C0B701E2
:10187000A601CE0182960E94B31ECE82DF82E88648
:10188000F9860AC0B701A601CE0185960E94B31E53
:10189000CA86DB86EC86FD86DF91CF911F910F9182
:1018A000FF90EF90DF90CF9008954F925F926F92EC
:1018B0007F928F929F92AF92BF92CF92DF92EF92E0
:1018C000FF920F931F93CF93DF93EC012A013B010B
:1018D0004801590120E030E040E251E4C501B40183
:1018E0000E94A72087FD11C020E030E040EF52E4C5
:1018F000C501B4010E94832218166CF4812C912C2E
:1019000030EFA32E32E4B32E06C0812C912C40E29E
:10191000A42E41E4B42E20E030E040E251E4C701BF
:10192000B6010E94A72087FD11C020E030E04CEDF9
:1019300052E4C701B6010E94832218166CF4C12C30
:10194000D12C9CEDE92E92E4F92E06C0C12CD12CAD
:1019500020E2E22E21E4F22EA7019601C501B40196
:101960000E94042020E030E040E253E40E94832201
:1019700018161CF48FEF9FEF1CC001E0A301920129
:1019800060E0CE0123DFA501940161E0CE011EDFFE
:10199000A701960162E0CE0119DF4A825B826C8268
:1019A0007D828E829F82A886B986CA86DB86EC8677
:1019B000FD86DF91CF911F910F91FF90EF90DF9007
:1019C000CF90BF90AF909F908F907F906F905F90DF
:1019D0004F9008956F927F928F929F92AF92BF9295
:1019E000CF92DF92EF92FF920F931F93CF93DF93EB
:1019F000CDB7DEB73C0159DF01E0A501940163E0FA
:101A0000C301E4DEF30186869786A08AB18ADF915E
:101A1000CF911F910F91FF90EF90DF90CF90BF90EB
:101A2000AF909F908F907F906F9008954F925F92AC
:101A30006F927F928F929F92AF92BF92EF920F938D
:101A40001F93CF93DF93EC014A015B012801390119
:101A500020E030E0A901C501B4010E94A72087FD64
:101A600011C020E030E046E153E4C501B4010E941A
:101A70008322181654F4812C912C66E1A62E63E47F
:101A8000B62E03C0812C912C540120E030E0A90136
:101A9000C301B2010E94A72087FD11C020E030E001
:101AA00040EF52E4C301B2010E948322181654F49D
:101AB000412C512C50EF652E52E4752E03C0412C61
:101AC000512C3201EE20B1F061E0CE0161DE9B01CC
:101AD000AC01C501B4010E9404204B015C0162E02D
:101AE000CE0156DE9B01AC01C301B2010E9404206D
:101AF0002B013C01A3019201C501B4010E94042005
:101B000020E030E044E353E40E948322181694F46A
:101B100020E04AE061E0CE01DF91CF911F910F916B
:101B2000EF90BF90AF909F908F907F906F905F905D
:101B30004F90F7CDB501A401CE0182960E94B31E4D
:101B4000B301A201CE018596DF91CF911F910F9134
:101B5000EF90BF90AF909F908F907F906F905F902D
:101B60004F900C94B31E0F931F93CF93DF93890173
:101B700084E0689FE0011124BA01CE018A5B9F4F87
:101B80008BDDB801CE01C296DF91CF911F910F91ED
:101B900083CDAF92BF92CF92DF92EF92FF920F93DD
:101BA0001F93CF93DF93CDB7DEB728970FB6F89486
:101BB000DEBF0FBECDBF8C016B01F42EE22E1D8265
:101BC0001E821F82188619821A821B821C829E0125
:101BD0002F5F3F4FAE014B5F5F4F6F2DC4DFB601EC
:101BE000882777FD8095982F0E94492129813A8185
:101BF0004B815C810E948E222D813E814F815885D0
:101C00000E9404205B016C01EE2059F06F2DC80189
:101C1000BFDD9B01AC01B501C6010E9404205B0140
:101C20006C01B501C60128960FB6F894DEBF0FBE51
:101C3000CDBFDF91CF911F910F91FF90EF90DF907B
:101C4000CF90BF90AF900895BF92CF92DF92EF9266
:101C5000FF920F931F93CF93DF93EC01162F042F66
:101C600075E0B72EC12CD12C7601113079F048F0F7
:101C7000123089F01330F1F483E0D4DB202F43E0FD
:101C80000EC082E0CFDB202F40E009C080E0CADB3D
:101C9000202F41E004C081E0C5DB202F42E0BC01E1
:101CA000CE0177DF9B01AC01C701B6010E94042081
:101CB0006B017C016AE070E080E090E041DBBA9467
:101CC000A1F620E030E040EA50E4C701B6010E94EE
:101CD000AE20DF91CF911F910F91FF90EF90DF9099
:101CE000CF90BF90089540E0AFCFCF92DF92EF92B8
:101CF000FF920F931F93CF93DF9300D0CDB7DEB742
:101D00008C018BE090E04A8369830E94552391E027
:101D10004A816981803809F090E041112EC0662324
:101D200049F19923B9F060E0C801DDDF6B017C0166
:101D30006BE070E08EE192E00E946D1EB701A6019B
:101D40008EE192E00E94B31EF801C282D382E48247
:101D5000F5820EC06BE070E08EE192E00E946D1E95
:101D600040E050E064EB72E48EE192E00E94B31E2A
:101D700081E090C08EE192E05BC0413061F5662366
:101D800039F19923C1F061E08FEF91E0ACDF6B0195
:101D90007C016DE070E081E292E00E946D1EB7016F
:101DA000A60181E292E00E94B31EF801C682D782AA
:101DB000E086F186DDCF6DE070E081E292E00E9486
:101DC0006D1E40E050E068EC72E481E292E0CECF1C
:101DD00081E292E02DC0423071F5662339F19923FA
:101DE000C1F062E08FEF91E07EDF6B017C016CE07F
:101DF00070E084E292E00E946D1EB701A60184E2C9
:101E000092E00E94B31EF801C286D386E486F5866E
:101E1000AFCF6CE070E084E292E00E946D1E40E083
:101E200050E060E772E484E292E0A0CF84E292E0C6
:101E30000E94721E9DCF433061F5662339F19923CC
:101E4000C1F063E08FEF91E04EDF6B017C016AE04F
:101E500070E087E292E00E946D1EB701A60187E262
:101E600092E00E94B31EF801C686D786E08AF18A06
:101E70007FCF6AE070E087E292E00E946D1E40E052
:101E800050E064EB72E487E292E070CF87E292E088
:101E9000CFCF80E00F900F90DF91CF911F910F91E6
:101EA000FF90EF90DF90CF900895CF93DF93EC01F8
:101EB0008AE090E00E945523803829F02AE04AE029
:101EC00062E3CE012EDC40E061E0CE010EDF41E0B6
:101ED00061E0CE010ADF42E061E0CE0106DF43E0CF
:101EE00061E0CE01DF91CF9100CF2F923F924F92D0
:101EF0005F926F927F928F929F92AF92BF92CF929A
:101F0000DF92EF92FF920F931F93CF93DF93CDB7A2
:101F1000DEB766970FB6F894DEBF0FBECDBF9E8BBF
:101F20008D8B6A017B01280139011D821E821F826F
:101F3000188619821A821B821C828DE090E00E9412
:101F40005523803869F080E090E0A0E2B1EC8D8309
:101F50009E83AF83B88789839A83AB83BC830CC08D
:101F6000BE016B5F7F4F84E190E096DBBE016F5F47
:101F70007F4F88E190E090DB20E030E0A901C701CD
:101F8000B6010E94A72087FD17C020E030E043E49F
:101F900053E4C701B6010E948322181694F020E092
:101FA00030E048E852E4C701B6010E940420698786
:101FB0007A878B879C870DC080E090E0A8E8B2E428
:101FC00004C080E090E8A3E8B3E489879A87AB87F0
:101FD000BC8720E030E046E153ECC301B2010E942F
:101FE000A72087FD11C020E030E040E253E4C301A8
:101FF000B2010E94832218166CF4412C512CF0E29D
:102000006F2EF3E47F2E06C0412C512CE6E16E2E9C
:10201000E3EC7E2E29853A854B855C85CA01B901A2
:102020000E948E226B017C01A3019201C301B201C7
:102030000E948E229B01AC01C701B6010E940420C0
:102040006B017C0120E030E047E655E40E9404206B
:102050004B015C0120E030E048EC57E4C701B601D9
:102060000E948E226D877E878F87988BA5019401B1
:10207000C501B4010E948E229B01AC016D857E8555
:102080008F8598890E9403200E94FB22698B7A8B9E
:102090008B8B9C8BA7019601C701B6010E9404207F
:1020A0006D877E878F87988BA501940169857A85D6
:1020B0008B859C850E948E224B015C0129893A897F
:1020C0004B895C89C301B2010E948E229B01AC0145
:1020D000C501B4010E9404204B015C0120E030E006
:1020E00040E253E46D857E858F8598890E948E221B
:1020F0009B01AC01C501B4010E94AE200E94F51FF6
:10210000698B7A8B8B8B9C8B20E030E047E655E423
:10211000C701B6010E9403204B015C0120E030E2C0
:102120004BEA57E4C701B6010E948E226B017C0185
:10213000A5019401C501B4010E948E229B01AC014E
:10214000C701B6010E9403200E94FB226B017C01A3
:10215000A501940169857A858B859C850E948E22D4
:102160004B015C01A7019601C301B2010E948E22BE
:102170009B01AC01C501B4010E9403206B017C01ED
:1021800020E030E044E153E46D857E858F859889B9
:102190000E948E229B01AC01C701B6010E94AE20B5
:1021A0000E94F51F4B015C0121EE3EE245E652E440
:1021B00069897A898B899C890E948E2229813A813A
:1021C0004B815C810E94042020E030E040E850E434
:1021D0000E9403200E94162169877A878B879C873B
:1021E000CD80DE80EF80F88421EE3EE245E652E4C9
:1021F000C501B4010E948E22A70196010E9404200D
:1022000020E030E040E851E40E9404200E941621C2
:102210001B01882777FD8095982F0E9449214B014B
:102220005C0120E030E040EA50E4C701B6010E94C2
:1022300004202B013C019B01AC01C501B4010E94AB
:10224000A72087FF03C0C301B20114C020E030E023
:1022500041E153E4C701B6010E9404206B017C01F7
:102260009B01AC01C501B4010E94832218162CF415
:10227000C701B6010E9416211B01A985BA85BD01BF
:10228000882777FD8095982F0E9449214B015C019A
:10229000B101882777FD8095982F0E944921AB01D5
:1022A000BC01EE24E394950184018D899E89BEDBF7
:1022B00066960FB6F894DEBF0FBECDBFDF91CF910B
:1022C0001F910F91FF90EF90DF90CF90BF90AF9054
:1022D0009F908F907F906F905F904F903F902F9046
:1022E00008952F923F924F925F926F927F928F92BA
:1022F0009F92AF92BF92CF92DF92EF92FF920F9395
:102300001F93CF93DF93CDB7DEB728970FB6F8941E
:10231000DEBF0FBECDBF1C014D835E836F83788708
:10232000C901B80126EE3EE245E652E40E94AE2025
:102330004B015C010E94AB202B013C0126EE3EE2EA
:1023400045E652E4C701B6010E94AE206B017C0154
:102350000E94AB2069837A838B839C8323E333E3DE
:102360004DE651E4C301B2010E948E222EEE3CE7FD
:1023700047E050E40E9404202B013C0126EF38E2A4
:1023800040E851E469817A818B819C810E948E2290
:102390009B01AC01C301B2010E94042069837A83CE
:1023A0008B839C8326EE3EE245E652E46D817E817E
:1023B0008F8198850E94AE202B013C010E94AB20AA
:1023C000905829813A814B815C810E948E22F101D3
:1023D000628B738B848B958B20E030E0A901C30165
:1023E000B2010E948322181624F0C301B201905852
:1023F00002C0C301B2010E94F122905829813A81A2
:102400004B815C810E948E22F101668B778B808FDD
:10241000918F20E030E0A901C501B4010E94832220
:10242000181624F0C501B401905802C0C501B401CA
:102430000E94F12223E333E34DE651E40E948E2211
:1024400026E83BEE43E351E40E9404204B015C018B
:1024500020E030E0A901C701B6010E9483221816CE
:1024600024F0C701B601905802C0C701B6010E940E
:10247000F12226EF38E240E851E40E948E229B01CF
:10248000AC01C501B4010E940320F101628F738F7A
:10249000848F958F28960FB6F894DEBF0FBECDBF00
:1024A000DF91CF911F910F91FF90EF90DF90CF9030
:1024B000BF90AF909F908F907F906F905F904F9064
:1024C0003F902F9008954F925F926F927F928F92DC
:1024D0009F92AF92BF92CF92DF92EF92FF920F93B3
:1024E0001F93CF93DF93EC0182E00E94120A20E059
:1024F00040E0BC018FEF91E04CDB4B015C0180E0E0
:102500000E94120A20E041E0BC018FEF91E041DB24
:102510002B013C0181E00E94120A20E042E0BC0154
:102520008FEF91E036DB6B017C0193018201B501F5
:10253000A401CE01D6DEDF91CF911F910F91FF90C4
:10254000EF90DF90CF90BF90AF909F908F907F9053
:102550006F905F904F9008952F923F924F925F92AD
:102560006F927F928F929F92AF92BF92CF92DF92A3
:10257000EF92FF920F931F93CF93DF93CDB7DEB708
:1025800068970FB6F894DEBF0FBECDBF5C012A017D
:102590003B01C901B80117011C2DA30192010E9442
:1025A000032069837A838B839C83D5010D90BC9132
:1025B000A02DBA87A98700E0CD01A0E0B0E08D830F
:1025C0009E83AF83B88789819A81AB81BC81B058E3
:1025D0008F87988BA98BBA8BA02EB12CE985FA85B1
:1025E000AE16BF0608F07DC1123009F467C080F551
:1025F000112309F40AC1113009F071C14501880C99
:10260000991C880C991C820C931CB501882777FDB6
:102610008095982F0E9449219B01AC0169817A81A4
:102620008B819C810E948E226B017C016D817E8159
:102630008F8198850E9447219B01AC01C701B6019B
:102640000E94AE20A30192010E940420D40142C145
:10265000133009F499C0143009F041C1602F70E0C3
:1026600080E090E00E9447216B017C016D817E81BA
:102670008F8198850E9447219B01AC01C701B6015B
:102680000E94AE206B017C01C501880F991F880F45
:10269000991F820D931D9C878B87A70196016F85DB
:1026A000788989899A890E948E224B015C0120E0F9
:1026B00030E040E050E4C701B60198C0B50188277A
:1026C00077FD8095982F0E9449216B017C016D81D7
:1026D0007E818F8198850E94472120E030E040E094
:1026E0005FE30E948E229B01AC01C701B6010E94EC
:1026F000AE206B017C0120E030E040E85FE30E9407
:10270000A720AA0CBB1CAA0CBB1C87FF0FC0A20CE5
:10271000B31C20E030E040E05FE369817A818B8187
:102720009C810E948E22A701960150C020E030E0DB
:1027300040E85FE3C701B6010E9403206B017C0102
:10274000C1018A0D9B1D9C878B8720E030E040E013
:102750005FE36F85788989899A890E948E224B016F
:102760005C0120E030E040E050E4C701B6010E9487
:1027700003209B01AC01C701B6010E948E2220E01C
:1027800030E040E85FE332C0602F70E080E090E02E
:102790000E9447216B017C016D817E818F8198852C
:1027A0000E9447219B01AC01C701B6010E94AE20E7
:1027B0006B017C01AA0CBB1CAA0CBB1CA20CB31C99
:1027C000A701960169817A818B819C810E948E226A
:1027D000A70196010E948E22A30192010E9404206B
:1027E000F501608371838283938379C00E94032003
:1027F0009B01AC01C501B4010E948E22A30192018C
:102800000E940420AB85BC8565C0602F70E080E02D
:1028100090E00E9447216B017C016D817E818F8158
:1028200098850E9447219B01AC01C701B6010E9417
:10283000AE206B017C019B01AC010E948E226B8754
:102840007C878D879E87F501EE0FFF1FEE0FFF1F20
:10285000E20DF31DF88FEF8B20E030E040E450E410
:1028600069817A818B819C810E948E222B853C8597
:102870004D855E850E948E229B01AC01C301B20191
:102880000E9404204B015C0120E030E040E050EC6D
:1028900069817A818B819C810E948E226B8B7C8BDB
:1028A0008D8B9E8BA70196016B857C858D859E8582
:1028B0000E948E229B01AC016B897C898D899E8947
:1028C0000E948E229B01AC01C501B4010E9404202C
:1028D000AF89B88D6D937D938D939C9313970F5F04
:1028E0007BCE68960FB6F894DEBF0FBECDBFDF91EA
:1028F000CF911F910F91FF90EF90DF90CF90BF90FD
:10290000AF909F908F907F906F905F904F903F908F
:102910002F9008954F925F926F927F928F929F9225
:10292000AF92BF92CF92DF92EF92FF920F931F93DD
:10293000CF93DF9300D000D0CDB7DEB72A013B01A3
:10294000C901B80126EE3EE245E652E40E94AE20FF
:102950000E94AB2069837A838B839C8326EE3EE2C0
:1029600045E652E4C701B6010E94AE200E94AB20AA
:102970004B015C0123E333E34DE651E469817A8145
:102980008B819C810E948E222EEE3CE747E050E432
:102990000E9404206B017C0126EF38E240E851E4FC
:1029A000C501B4010E948E229B01AC01C701B60192
:1029B0000E9404204B015C0126EE3EE245E652E413
:1029C000C301B2010E94AE206B017C0120E030E027
:1029D000A9010E948322181624F0C701B60190585D
:1029E00002C0C701B6010E94F1229058A5019401CE
:1029F0000E948E220F900F900F900F90DF91CF9139
:102A00001F910F91FF90EF90DF90CF90BF90AF900C
:102A10009F908F907F906F905F904F9008952F922E
:102A20003F924F925F926F927F928F929F92AF925E
:102A3000BF92CF92DF92EF92FF920F931F93CF93AB
:102A4000DF93CDB7DEB768970FB6F894DEBF0FBE41
:102A5000CDBF988F8F8B49835A836B837C830F8381
:102A6000188729873A8715019E828D822CE53FE8D9
:102A700044EC51E4C701B6010E94832218169CF071
:102A800028E939E941E550ECC701B6010E94A720C9
:102A900087FF11C058E9C52E59E9D52E51E5E52E1D
:102AA00050ECF52E08C06CE5C62E6FE8D62E64EC0F
:102AB000E62E61E4F62E2EEE3CE747E050E46F810F
:102AC000788589859A8590580E94032023E333E313
:102AD0004DE651E40E94AE204B015C0126E83BEE3E
:102AE00043E351E4C701B6010E94032023E333E32B
:102AF0004DE651E40E94AE202B013C01A50194015A
:102B0000C501B4010E948E226F87788B898B9A8BC6
:102B1000A3019201C301B2010E948E226B877C87C0
:102B20008D879E872F85388949895A890E9404207C
:102B30000E94FB226B8B7C8B8D8B9E8B2AE037ED6A
:102B400043EA5BE369817A818B819C810E94A720A3
:102B500018160CF4B0C02AE037ED43EA5BEB69814C
:102B60007A818B819C810E94832287FDA4C080E0B2
:102B700090E0A4EBB2E4F10180839183A283B3835C
:102B800020E030E0A901C301B2010E94A720882300
:102B9000C9F0C501B4019058A30192010E94AE2072
:102BA0000E947F2026EE3EE245E652E40E948E22FD
:102BB0004B015C0120E030E0A9010E94832218163D
:102BC0008CF406C0812C912C44EBA42E42E4B42E4C
:102BD00020E030E044E353E4C501B4010E94032047
:102BE0004B015C012F85388949895A8960E070E082
:102BF00080E89FE30E9403202B853C854D855E8500
:102C00000E94032024E937E745E95FE30E9403209F
:102C100026E531E54AE050E40E94AE202B893C894C
:102C20004D895E890E94AE200E94682026EE3EE219
:102C300045E652E40E948E22A50194010E940320E1
:102C40004B015C0120E030E0A9010E94A720EDA526
:102C5000FEA587FD05C080829182A282B38204C056
:102C6000108211821282138226EE3EE245E652E481
:102C7000EDA5FEA560817181828193810E94AE20C5
:102C80000E94F12226EF38E240E851E40E948E22B1
:102C90009B01AC01C701B6010E94042026E83BEE6F
:102CA00043E351E40E94032023E333E34DE651E480
:102CB0000E94AE202AC129813A814B815C816F81BB
:102CC000788589859A850E94AE204B015C010E941F
:102CD0007F2026EE3EE245E652E40E948E226B0102
:102CE0007C0120E030E0A901C501B4010E94A720C9
:102CF00087FD06C0F101C082D182E282F3820DC05D
:102D000020E030E044E353E4C701B6010E94042010
:102D1000F101608371838283938320E030E0A90115
:102D20006F81788589859A850E94A72081111AC0B4
:102D300020E030E0A90169817A818B819C810E9429
:102D40008322181654F480E090E0A4E3B3E4F10188
:102D500080839183A283B38305C0F1011082118225
:102D60001282138226EE3EE245E652E4F1016081D2
:102D70007181828193810E94AE200E94AB209B01D1
:102D8000AC0169817A818B819C8190580E94AE2030
:102D90002EEE3CE747E050E40E94032023E333E3B8
:102DA0004DE651E40E94AE204B015C0120E030E092
:102DB000A901C301B2010E94A7208823C9F0A30181
:102DC0009201C501B40190580E94AE200E947F205C
:102DD00026EE3EE245E652E40E948E226B017C0123
:102DE00020E030E0A9010E94832218168CF406C06E
:102DF000C12CD12C34EBE32E32E4F32E20E030E072
:102E000044E353E4C701B6010E9403206B017C0137
:102E1000A5019401C501B4010E948E229B01AC0161
:102E20006B857C858D859E850E9404204B015C010D
:102E30000E94FB2269837A838B839C8324E937E792
:102E400045E95FE3C501B4010E94042020E030E0C1
:102E500040E85FE30E940320905826E531E54AE010
:102E600050E40E94AE2029813A814B815C810E940E
:102E7000AE200E94682026EE3EE245E652E40E9423
:102E80008E22A70196010E940320EDA5FEA5608376
:102E900071838283938320E030E0A901F101608196
:102EA0007181828193810E94A72087FF05C0F10173
:102EB000108211821282138226EE3EE245E652E42F
:102EC000EDA5FEA560817181828193810E94AE2073
:102ED0006B017C0120E030E0A9010E9483221816DA
:102EE00024F0C701B601905802C0C701B6010E9484
:102EF000F12226E531E54AE85FE30E948E229B013C
:102F0000AC01C301B2010E9404200E94682026EE99
:102F10003EE245E652E40E948E22ED81FE8160830E
:102F2000718382839383F101C080D180E280F3803A
:102F300020E030E0A901C701B6010E9483221816E3
:102F400024F0F7FAF094F7F8F094F101C082D182FE
:102F5000E282F382ED81FE8180809180A280B38045
:102F600020E030E0A901C501B4010E9483221816B7
:102F700024F0B7FAB094B7F8B094ED81FE81808266
:102F80009182A282B382EDA5FEA5C080D180E280AD
:102F9000F38020E030E0A901C701B6010E94A7201C
:102FA00087FD31C0F10140815181628173819501BA
:102FB00084018F89988DAEDC6B017C012DEC3CEC9B
:102FC0004CEC5DE36F81788589859A850E940420A9
:102FD0009B01AC01C701B6010E94832218160CF4B4
:102FE0008BC02DEC3CEC4CEC5DE36F8178858985E2
:102FF0009A850E9403209B01AC01C701B6010E9483
:10300000A72087FD79C0F101C080D180E280F380E4
:10301000A7019601C701B6010E943C2381117AC025
:10302000E894F7F82FEF3FEF4FE75FE7C701B601EE
:103030000E943C2381110BC02FEF3FEF4FE75FE76A
:10304000C701B6010E94A72018160CF463C0ED81D9
:10305000FE81C080D180E280F380A7019601C70184
:10306000B6010E943C23811160C0E894F7F82FEF6D
:103070003FEF4FE75FE7C701B6010E943C23811194
:103080000BC02FEF3FEF4FE75FE7C701B6010E948C
:10309000A72018160CF449C0EDA5FEA5C080D1806C
:1030A000E280F380A7019601C701B6010E943C238C
:1030B000811147C046015701E894B7F82FEF3FEF61
:1030C0004FE75FE7C501B4010E943C2381110AC0AC
:1030D0002FEF3FEF4FE75FE7C501B4010E94A72044
:1030E00018167CF120E030E0A901C701B6010E946A
:1030F000A72087FF31C025C0A501940160E070E0E2
:1031000084E393E480D7ED81FE81608371838283C1
:10311000938379CF60E08FEF91E00E94730EF1010D
:10312000608371838283938392CF61E08FEF91E01C
:103130000E94730EED81FE8160837183828393838D
:10314000ABCF62E08FEF91E00E94730EEDA5FEA57C
:10315000608371838283938368960FB6F894DEBF91
:103160000FBECDBFDF91CF911F910F91FF90EF90D8
:10317000DF90CF90BF90AF909F908F907F906F9097
:103180005F904F903F902F9008952F923F924F92D3
:103190005F926F927F928F929F92AF92BF92CF92E7
:1031A000DF92EF92FF920F931F93CF93DF93CDB7F0
:1031B000DEB7C454D1090FB6F894DEBF0FBECDBF41
:1031C0001C012A013B010C8F1D8F2E8F3F8FCAA639
:1031D000DBA6ECA6FDA68AA29BA2ACA2BDA22DB73F
:1031E0003EB725963FAF2EAF25978BE090E00E942B
:1031F0005523803849F02AE04AE062E3C1010E9489
:10320000910B8FEF9FEFA1C3A3019201C301B20104
:103210000E948E226B017C012C8D3D8D4E8D5F8D29
:10322000CA01B9010E948E229B01AC01C701B601FF
:10323000EBD60E94FB226B017C0120E030E040E0F5
:1032400052E40E9483221816ECF4A701960160E074
:1032500070E080E092E482D76B017C019B01AC01BD
:10326000C301B2010E948E222B013C01A7019601ED
:103270006C8D7D8D8E8D9F8D0E948E226C8F7D8FAB
:103280008E8F9F8FD1011A96CD90DD90ED90FC909E
:103290001D9716960D911D912D913C91199712969F
:1032A0004D915D916D917C911597C1011AD8D10115
:1032B00052968D919D910D90BC91A02D8EAB9FABA0
:1032C000A8AFB9AFD10156968D919D910D90BC914B
:1032D000A02D8AAF9BAFACAFBDAFD1015A968D91F7
:1032E0009D910D90BC91A02D22968CAF9DAFAEAF5D
:1032F000BFAF22976A96BFAD6A97B170BEA31FA2F7
:10330000EEA1FFA1BF01882777FD8095982FC1D737
:103310006B017C019B01AC016EA97FA988AD99ADC1
:103320000E948E22A30192016FD66EA37FA388A76D
:1033300099A7A70196016AAD7BAD8CAD9DAD0E94AA
:103340008E222C8D3D8D4E8D5F8D5ED62B013C01E6
:10335000A701960122966CAD7DAD8EAD9FAD2297F3
:103360000E948E222AA53BA54CA55DA54DD66C8F4B
:103370007D8F8E8F9F8FCE010D969F938F939E0191
:103380002F5E3F4F490108965C01CC8CDD8CEE8CA2
:10339000FF8C930182014EA15FA168A579A5C101AF
:1033A0003EDB8D899E89AF89B88D8AA79BA7ACA784
:1033B000BDA7D10112968D919D910D90BC91A02D2C
:1033C0008EA79FA7A8ABB9AB9C01AD016AA57BA551
:1033D0008CA59DA518D66B017C010F900F9020E065
:1033E00030E0A9010E94832218161CF4C701B6011F
:1033F00003C0C701B60190581ED78B01F101268189
:1034000037814085518569897A898B899C89FBD56B
:103410004B015C0120E030E0A9010E9483221816D4
:103420001CF4C501B40103C0C501B401905803D711
:103430006CAB23967FAF2397D1011A962D913D91C6
:103440004D915C911D976D857E858F859889DBD523
:103450004B015C0120E030E0A9010E948322181694
:103460001CF4C501B40103C0C501B4019058E3D6F2
:103470008CA923969FAD23978017910708F4C80164
:103480008C018617970708F48B010135110510F0A0
:1034900000E510E0F101118300836A96FFAD6A97A1
:1034A000F1FF0CC0D1011E962D913D914D915C9183
:1034B00051976AA17BA18CA19DA111C06A96BFAD55
:1034C0006A97B2FF11C0F10126853785408951897D
:1034D0006AA17BA18CA19DA197D5A701960194D546
:1034E0006AA37BA38CA39DA320E030E0A9016E9684
:1034F0006CAD7DAD8EAD9FAD6E970E948322181688
:103500000CF007C26F96FFAD6F97F13009F0FBC06A
:103510002DB73EB73FA32EA3000F111F000F111FA1
:103520008DB79EB7801B910B0FB6F8949EBF0FBE50
:103530008DBFADB7BEB711963D01EDB7FEB7E01B2D
:10354000F10B0FB6F894FEBF0FBEEDBF2DB73EB71F
:103550002F5F3F4F3D8F2C8F8DB79EB7801B910BF8
:103560000FB6F8949EBF0FBE8DBFADB7BEB7119614
:103570002D01EDB7FEB7E01BF10B0FB6F894FEBFBF
:103580000FBEEDBF2DB73EB72F5F3F4F39A328A326
:10359000A096CFACA09773010AA51BA52CA53DA5AD
:1035A0004EA55FA568A979A9C1010E94AC1209893D
:1035B0001A892B893C89D10116964D915D916D91A7
:1035C0007C911997A096CFACA097EC8CFD8CC10193
:1035D0000E94AC120D851E852F853889F101428528
:1035E000538564857585A096CFACA0977201C10103
:1035F0000E94AC12D1011E964D915D916D917C910E
:103600005197A096CFACA097E8A0F9A00AA11BA162
:103610002CA13DA1C1010E94AC121B8E2B8D822FCB
:1036200090E0D1012D913C918217930708F063C07F
:10363000880F991F880F991FA196BFADA197BB2333
:1036400011F1E8A1F9A1E80FF91F80809180A28013
:10365000B380F201E80FF91FC080D180E280F380CF
:10366000EC8DFD8DE80FF91F0081118122813381DE
:10367000F301E80FF91F4081518162817381C1011B
:103680000E94EA0C19C0F201E80FF91FC080D18036
:10369000E280F380EC8DFD8DE80FF91F0081118130
:1036A00022813381F301E80FF91F4081518162814A
:1036B0007381C1010E94550C20E030E04AE754E4D8
:1036C0006E966CAD7DAD8EAD9FAD6E9727D76B01BD
:1036D0007C01F1016081718180E090E0D8D59B018F
:1036E000AC01C701B6013AD5A6D50E94A009FB8D51
:1036F000FF5FFB8F93CFEEA1FFA10FB6F894FEBF43
:103700000FBEEDBF06C16F96FFAD6F97F11101C1FE
:103710002DB73EB73DAB2CAB000F111F000F111F93
:103720008DB79EB7801B910B0FB6F8949EBF0FBE4E
:103730008DBFADB7BEB71196B9A3A8A3EDB7FEB7BD
:10374000E01BF10B0FB6F894FEBF0FBEEDBF2DB717
:103750003EB72F5F3F4F3BA72AA78DB79EB7801B71
:10376000910B0FB6F8949EBF0FBE8DBFADB7BEB71D
:103770001196BFA7AEA7EDB7FEB7E01BF10B0FB6D2
:10378000F894FEBF0FBEEDBF2DB73EB72F5F3F4F82
:103790003BAB2AABA096CFACA097E8A0F9A00EA1B6
:1037A0001FA128A539A54EA95FA968AD79ADC101B2
:1037B0000E94AC12A096CFACA097EAA4FBA4930100
:1037C00082014AAD5BAD6CAD7DADC1010E94AC1212
:1037D000A096CFACA097EEA4FFA40C8D1D8D2E8DCE
:1037E0003F8D22964CAD5DAD6EAD7FAD2297C10190
:1037F0000E94AC12D1011E964D915D916D917C910C
:103800005197A096CFACA097EAA8FBA80AA11BA14C
:103810002CA13DA1C1010E94AC12512CFE01319698
:10382000FA8FE98F652C712CF101808191816816E6
:10383000790608F067C0660C771C660C771CEEA54D
:10384000FFA5E60DF71DC080D180E280F380EAA5D8
:10385000FBA5E60DF71D0081118122813381E8A1CE
:10386000F9A1E60DF71D4081518162817381FA8DC6
:10387000FF93898D8F93DE0115964D01FE013996D8
:103880005F01C101CCD80F900F90C980DA80EB8026
:10389000FC800D811E812F81388549855A856B8575
:1038A0007C85A196FFADA197FF2361F0EAA9FBA952
:1038B000E60DF71D80809180A280B380C1010E9437
:1038C000EA0C03C0C1010E94550C20E030E04AE739
:1038D00054E46E966CAD7DAD8EAD9FAD6E971ED6E9
:1038E0006B017C01D1016D917C9180E090E0CFD49F
:1038F0009B01AC01C701B60131D49DD40E94A0093F
:10390000539490CF2CA93DA90FB6F8943EBF0FBE9B
:103910002DBF4D895E896F89788D09891A892B8918
:103920003C89CD84DE84EF84F888A1968FADA19781
:10393000882341F08AA09BA0ACA0BDA0C1010E9439
:10394000EA0C03C0C1010E94550C2596AEADBFAD77
:1039500025970FB6F894BEBF0FBEADBFCC5BDF4F4F
:103960000FB6F894DEBF0FBECDBFDF91CF911F9190
:103970000F91FF90EF90DF90CF90BF90AF909F900E
:103980008F907F906F905F904F903F902F90089511
:10399000CF93DF93EC0161E089E00E94B50A60E01B
:1039A00089E00E94EE0A81E08E8FDF91CF91089529
:1039B000CF93DF93EC018E8D882349F061E089E09D
:1039C0000E94B50A61E089E00E94EE0A1E8EDF9136
:1039D000CF91089561E086E00E94B50A61E085E03C
:1039E0000E94B50A60E085E00E94EE0A61E086E090
:1039F0000C94EE0A61E086E00E94B50A61E085E081
:103A00000E94B50A61E085E00E94EE0A60E086E06F
:103A10000E94EE0A62E370E080E090E00E94A0095C
:103A200060E085E00C94EE0A8FEF91E00C94790B46
:103A30001F920F920FB60F9211242F933F934F9323
:103A40005F936F937F938F939F93AF93BF93EF9306
:103A5000FF9380912E0287FF05C01092850010927F
:103A600084001AC020912E02332727FD30958091C3
:103A70002D0290E0281739077CF480912E029927B7
:103A800087FD9095FC01EE0FFF1FE80FF91FE15D28
:103A9000FD4F808186FD15C080912E028F5F80933F
:103AA0002E0220912E02332727FD309580912D0282
:103AB00090E028173907BCF480912E028C305CF11D
:103AC00012C080912E02992787FD9095FC01EE0F80
:103AD000FF1FE80FF91FE15DFD4F808160E08F73EC
:103AE0000E94EE0AD9CF80918400909185000496BF
:103AF00080349C4918F480E49CE905C080918400DE
:103B000090918500049690938900809388008FEFB0
:103B100080932E0238C020918400309185008091DE
:103B20002E02992787FD9095FC01EE0FFF1FE80FED
:103B3000F91FE15DFD4F81819281820F931F909368
:103B400089008093880080912E02992787FD9095A7
:103B5000FC01EE0FFF1FE80FF91FE15DFD4F8081B3
:103B600086FF11C080912E02992787FD9095FC0158
:103B7000EE0FFF1FE80FF91FE15DFD4F808161E04F
:103B80008F730E94EE0AFF91EF91BF91AF919F91C9
:103B90008F917F916F915F914F913F912F910F90F6
:103BA0000FBE0F901F90189520912D022C30A0F47D
:103BB00031E0320F30932D02FC012083822F90E000
:103BC000FC01EE0FFF1FE80FF91FE15DFD4F88EBD1
:103BD0009BE09283818308952FEFFC012083089559
:103BE000DF92EF92FF920F931F93CF93DF93EC013D
:103BF000D62E7A01890188818C3008F065C061E099
:103C00008D2D0E94B50A8881A82FB0E0FD01EE0F2E
:103C1000FF1FEA0FFB1FE15DFD4F2D2D2F739081DC
:103C2000907C922B908364EF71E06E197F0977FF8F
:103C300002C06D5F7F4F7595679575956795698330
:103C400044EC59E0401B510B57FF02C04D5F5F4FE2
:103C500055954795559547954A836CE05DD19CE015
:103C6000899FB001112420E030E0A901460F571FC1
:103C7000FA01EE0FFF1FE40FF51FE15DFD4F90818C
:103C800096FD16C02F5F3F4F2C30310571F7811123
:103C90000FC01092800082E0809381001092850016
:103CA00010928400B19A80916F00826080936F00BF
:103CB000888190E0FC01EE0FFF1FE80FF91FE15D26
:103CC000FD4F8081806480838881DF91CF911F9137
:103CD0000F91FF90EF90DF90089524EC39E044EFCE
:103CE00051E07ECFFC01808190E0FC01EE0FFF1FD0
:103CF000E80FF91FE15DFD4F80818F7B8083089580
:103D0000FC0180818C3070F591812DE730E0291B1A
:103D1000310997FD3395220F331F220F331F62178E
:103D200073077CF0928121E732E0291B310997FD6E
:103D30003395220F331F220F331F621773070CF4C2
:103D40009B0122503109220F331F4FB7F89490E0A6
:103D5000FC01EE0FFF1FE80FF91FE15DFD4F3283FD
:103D600021834FBF08954F925F926F927F92AF92DF
:103D7000BF92CF92DF92EF92FF920F931F93CF9358
:103D8000DF93EC012A013B0120E030E04AEF53E4ED
:103D9000C301B201DCD187FF58C020E030E0A901A7
:103DA000C301B201D4D187FD10C020E030E044E36C
:103DB00053E4C301B201A7D3181654F4412C512C7B
:103DC00034E3632E33E4732E03C0412C512C3201B3
:103DD00089812DE730E0281B310987FD3395220FBB
:103DE000331F220F331F5901CC24B7FCC094DC2CA5
:103DF00020E030E040E251E4C301B2018FD316D29B
:103E00002A8141E752E0421B510927FD5395440F97
:103E1000551F440F551F2A01662457FC6094762CC9
:103E20007F926F925F924F9218E0E12E17E0F12E91
:103E300000E010E020E030E0A9011AD02AD22B01E6
:103E40003C010F900F900F900F90C301B201EED183
:103E5000CE01DF91CF911F910F91FF90EF90DF90F6
:103E6000CF90BF90AF907F906F905F904F9048CF72
:103E70004F925F926F927F92AF92BF92CF92DF92FA
:103E8000EF92FF920F931F93CF93DF93CDB7DEB7DF
:103E900029013A01621B730B840B950B29893A891E
:103EA0004B895C892A193B094C095D09298B3A8B9E
:103EB0004B8B5C8B9B01AC0169897A898B899C89CE
:103EC0001CD0E418F50806091709A801970152D07B
:103ED0002A0D3B1D4C1D5D1DCA01B901DF91CF911B
:103EE0001F910F91FF90EF90DF90CF90BF90AF9018
:103EF0007F906F905F904F900895DB018F939F9319
:103F000055D0BF91AF91A29F800D911DA39F900DA1
:103F1000B29F900D11240895991B79E004C0991F58
:103F2000961708F0961B881F7A95C9F78095089513
:103F3000A1E21A2EAA1BBB1BFD010DC0AA1FBB1FAD
:103F4000EE1FFF1FA217B307E407F50720F0A21B1F
:103F5000B30BE40BF50B661F771F881F991F1A948C
:103F600069F760957095809590959B01AC01BD01B6
:103F7000CF010895052E97FB16F400940FD057FD3E
:103F800005D0D6DF07FC02D046F408C05095409516
:103F9000309521953F4F4F4F5F4F089590958095F5
:103FA000709561957F4F8F4F9F4F08950FD0A59FBC
:103FB000900DB49F900DA49F800D911D1124089524
:103FC000EE0FFF1F0590F491E02D0994A29FB00120
:103FD000B39FC001A39F700D811D1124911DB29F3D
:103FE000700D811D1124911D08959F939F778CD191
:103FF0000F9000203AF49058A2EA2AED3FE049E4FD
:1040000050E413D035C25058BB27AA270ED030C277
:10401000F9D130F0FED120F031F49F3F11F41EF4BD
:10402000B8C10EF4E095E7FBAEC1E92F43D280F3AF
:10403000BA17620773078407950718F071F49EF5A5
:104040005BC20EF4E0950B2EBA2FA02D0B01B90127
:1040500090010C01CA01A0011124FF27591B99F0FE
:10406000593F50F4503E68F11A16F040A22F232F0A
:10407000342F4427585FF3CF469537952795A7955A
:10408000F0405395C9F77EF41F16BA0B620B730B01
:10409000840BBAF09150A1F0FF0FBB1F661F771F72
:1040A000881FC2F70EC0BA0F621F731F841F48F427
:1040B000879577956795B795F7959E3F08F0B3CFAD
:1040C0009395880F08F09927EE0F97958795089597
:1040D0009F939F77EEE389379E0720F4E8E6F0E0B0
:1040E00080D109C011D19058A2EA2AED3FE049ECF5
:1040F0005FE39BDFBDD10F9007FC90580895DF93DD
:10410000DD27B92FBF7740E85FE31616170648078B
:104110005B0710F4D92FFBD19F938F937F936F93FD
:10412000A8D2ECE7F0E038D1A3D12F913F914F9185
:104130005F9100D2DD2349F09058A2EA2AED3FE0DA
:1041400049EC5FE3D0785D2770DFDF9191C1F7D054
:1041500008F481E0089565D1E3959BC10CD088C136
:1041600058D140F04FD130F021F45F3F19F00BC12E
:104170005111C3C10EC19ED198F39923C9F35523A0
:10418000B1F3951B550BBB27AA276217730784074A
:1041900038F09F5F5F4F220F331F441FAA1FA9F300
:1041A00033D00E2E3AF0E0E830D091505040E695F2
:1041B000001CCAF729D0FE2F27D0660F771F881F53
:1041C000BB1F261737074807AB07B0E809F0BB0B42
:1041D000802DBF01FF2793585F4F2AF09E3F510566
:1041E00068F0D1C08AC15F3FECF3983EDCF386955E
:1041F00077956795B795F7959F5FC9F7880F911DDC
:104200009695879597F90895E1E0660F771F881FC7
:10421000BB1F621773078407BA0720F0621B730B7A
:10422000840BBA0BEE1F88F7E095089504D06894CC
:10423000B11163C1089546D188F09F5790F0B92F0E
:104240009927B751A0F0D1F0660F771F881F991FEB
:104250001AF0BA95C9F712C0B13081F04DD1B1E072
:1042600008954AC1672F782F8827B85F39F0B93F82
:10427000CCF3869577956795B395D9F73EF49095ED
:104280008095709561957F4F8F4F9F4F0895E8946B
:1042900009C097FB3EF490958095709561957F4F8E
:1042A0008F4F9F4F9923A9F0F92F96E9BB2793953C
:1042B000F695879577956795B795F111F8CFFAF44C
:1042C000BB0F11F460FF1BC06F5F7F4F8F4F9F4F7D
:1042D00016C0882311F096E911C0772321F09EE8DB
:1042E000872F762F05C0662371F096E8862F70E041
:1042F00060E02AF09A95660F771F881FDAF7880F1B
:104300009695879597F90895DF93CF931F930F9311
:104310008B01EC01E9EAF0E03FD0AAD09801AE01B0
:104320008B01EC0160E070E080E89FE36CDE63D11C
:104330009801AE010F911F91CF91DF91FBC0990FB2
:104340000008550FAA0BE0E8FEEF16161706E8075F
:10435000F907C0F012161306E407F50798F0621B80
:10436000730B840B950B39F40A2661F0232B242B55
:10437000252B21F408950A2609F4A140A6958FEF74
:10438000811D811D089597F99F6780E870E060E0C6
:1043900008959FEF80EC0895DF93CF931F930F93C1
:1043A000FF92EF92DF927B018C01689405C0DA2EB8
:1043B000EF01C0D0FE01E894A5912591359145917A
:1043C0005591AEF3EF0131DEFE019701A801DA94B9
:1043D00079F7DF90EF90FF900F911F91CF91DF91D0
:1043E00008959F938F937F936F93FF93EF939B0118
:1043F000AC0194D0EF91FF91CFDF2F913F914F917E
:104400005F918CC000240A94161617061806090638
:10441000089500240A94121613061406050608953A
:10442000B8CF50D0E8F3E894E0E0BB279F57F0F016
:104430002AED3FE049EC06C0EE0FBB0F661F771F69
:10444000881F28F0B23A62077307840728F0B25A2F
:10445000620B730B840BE3959A9572F7803830F4F6
:104460009A95BB0F661F771F881FD2F790480AC125
:10447000092E0394000C11F4882352F0BB0F40F472
:10448000BF2B11F460FF04C06F5F7F4F8F4F9F4FB2
:104490000895EF93E0FF06C0A2EA2AED3FE049EC61
:1044A0005FEBC3DDE5DF0F90039401FC9058E1ED75
:1044B000F0E097CF57FD9058440F551F59F05F3FDC
:1044C00071F04795880F97FB991F61F09F3F79F036
:1044D00087950895121613061406551FF2CF4695B8
:1044E000F1DF08C0161617061806991FF1CF86953A
:1044F0007105610508940895E894BB27662777271E
:10450000CB0197F908951BDF08F48FEF08959B0105
:10451000AC0160E070E080E89FE320CE0BD0A8CF34
:1045200071DF28F076DF18F0952309F02CCF31CF1A
:104530001124E3CFBFDFA0F3959FD1F3950F50E097
:10454000551F629FF001729FBB27F00DB11D639F45
:10455000AA27F00DB11DAA1F649F6627B00DA11DEB
:10456000661F829F2227B00DA11D621F739FB00D91
:10457000A11D621F839FA00D611D221F749F332701
:10458000A00D611D231F849F600D211D822F762F9A
:104590006A2F11249F5750408AF0E1F088234AF097
:1045A000EE0FFF1FBB1F661F771F881F91505040E3
:1045B000A9F79E3F510570F0E6CE9FCF5F3FECF329
:1045C000983EDCF3869577956795B795F795E795CF
:1045D0009F5FC1F7FE2B880F911D9695879597F9E0
:1045E00008959F931EDF0F9007FCEE5F52CF11F4EA
:1045F0000EF4CFCE45C066DFD0F39923D9F3CEF3C6
:104600009F57550B87FF4AD00024A0E640EA90014F
:1046100080585695979528F4805C660F771F881F01
:1046200020F026173707480730F4621B730B840B02
:10463000202931294A2BA695179407942025312546
:104640004A2758F7660F771F881F20F0261737076D
:10465000480730F4620B730B840B200D311D411D94
:10466000A09581F7B901842F9158880F9695879569
:1046700008959B01AC0152CF62DE880B990B08951F
:104680009F3F31F0915020F4879577956795B795C6
:10469000880F911D9695879597F9089591505040F0
:1046A000660F771F881FD2F70895F999FECF92BD44
:1046B00081BDF89A992780B50895262FF999FECFE4
:1046C0001FBA92BD81BD20BD0FB6F894FA9AF99A2F
:0A46D0000FBE01960895F894FFCF85
:1046DA000100000001000000009607FF081A0733D6
:0646EA000725077507001B
:00000001FF
